:100000000C945D000C9485000C9485000C94850084
:100010000C9485000C9485000C9485000C9485004C
:100020000C9485000C9485000C9485000C9485003C
:100030000C9485000C9485000C9485000C9485002C
:100040000C944F020C9485000C94BF020C949902FE
:100050000C9485000C9485000C9485000C9485000C
:100060000C9485000C94850000000008000201003B
:100070000003040700000000000000000000000072
:10008000250028002B0000000000240027002A0083
:10009000040404040404040402020202020203032E
:1000A0000303030301020408102040800102040836
:1000B0001020010204081020DC0311241FBECFEF22
:1000C000D8E0DEBFCDBF11E0A0E0B1E0E0E7F8E0AE
:1000D00002C005900D92A631B107D9F721E0A6E143
:1000E000B1E001C01D92A03CB207E1F710E0CDE500
:1000F000D0E004C02197FE010E942B04CC35D1072B
:10010000C9F70E94F1020C9436040C94000090E0B0
:10011000FC01EC55FF4F2491FC01E057FF4F849107
:10012000882399F090E0880F991FFC01EA57FF4F50
:10013000A591B491FC01E458FF4F859194918FB73C
:10014000F894EC91E22BEC938FBF0895CF92DF925D
:10015000EF92FF920F931F93CF93DF936C017A017D
:100160008B01C0E0D0E0CE15DF0589F0D8016D919C
:100170008D01D601ED91FC910190F081E02DC60139
:100180000995892B11F47E0102C02196ECCFC7019D
:10019000DF91CF911F910F91FF90EF90DF90CF9063
:1001A0000895089580E090E00895FC01538D448DFA
:1001B000252F30E0842F90E0821B930B541710F012
:1001C000CF96089501970895FC01918D828D98171F
:1001D00061F0828DDF01A80FB11D5D968C91928D2B
:1001E0009F5F9F73928F90E008958FEF9FEF089528
:1001F000FC01918D828D981731F0828DE80FF11DF1
:10020000858D90E008958FEF9FEF0895FC01918D0B
:10021000228D892F90E0805C9F4F821B91098F7304
:100220009927089583E291E00E94060121E0892B3D
:1002300009F420E0822F0895FC01848DDF01A80FCE
:10024000B11DA35ABF4F2C91848D90E001968F73FE
:100250009927848FA689B7892C93A089B1898C911D
:1002600080648C93938D848D981306C00288F389E3
:10027000E02D80818F7D80830895EF92FF920F9310
:100280001F93CF93DF93EC0181E0888F9B8D8C8D42
:10029000981305C0E889F989808185FD24C0F62E70
:1002A0000B8D10E00F5F1F4F0F731127E02E8C8D09
:1002B000E8120CC00FB607FCFACFE889F9898081F3
:1002C00085FFF5CFCE010E941C01F1CF8B8DFE0181
:1002D000E80FF11DE35AFF4FF0820B8FEA89FB898B
:1002E0008081806207C0EE89FF896083E889F9898F
:1002F00080818064808381E090E0DF91CF911F91C5
:100300000F91FF90EF900895CF93DF93EC01888DCC
:100310008823C9F0EA89FB89808185FD05C0A88909
:10032000B9898C9186FD0FC00FB607FCF5CF80818F
:1003300085FFF2CFA889B9898C9185FFEDCFCE01D9
:100340000E941C01E7CFDF91CF91089580E090E0FB
:10035000892B29F00E94120181110C94000008954C
:1003600090E0FC01E859FF4F3491FC01EC55FF4F40
:100370002491FC01E057FF4FE491EE2309F43BC0C8
:10038000332339F1333091F038F43130A9F0323081
:1003900001F584B58F7D12C0373091F03830A1F06F
:1003A0003430B9F4809180008F7D03C0809180004B
:1003B0008F77809380000DC084B58F7784BD09C08E
:1003C0008091B0008F7703C08091B0008F7D8093C3
:1003D000B000F0E0EE0FFF1FE458FF4FA591B4917D
:1003E0008FB7F894EC91611103C020952E2301C0C2
:1003F0002E2B2C938FBF08958F929F92AF92BF9216
:100400000F931F93CF93DF93CDB7DEB7A1970FB6AE
:10041000F894DEBF0FBECDBF19A2423008F44AE007
:100420008E010F5D1F4F842E912CA12CB12CA501A4
:1004300094010E940904E62FB901CA010150110973
:10044000EA3014F4E05D01C0E95CD801EC93232BA1
:10045000242B252B61F70115110571F0F80101908E
:100460000020E9F73197AF01401B510BB80183E23F
:1004700091E00E94A60002C080E090E0A1960FB635
:10048000F894DEBF0FBECDBFDF91CF911F910F91CA
:10049000BF90AF909F908F9008950E9431041F925B
:1004A0000F920FB60F9211242F933F938F939F9328
:1004B000AF93BF9380911F0190912001A0912101E2
:1004C000B091220130911E0123E0230F2D3720F43B
:1004D0000196A11DB11D05C026E8230F0296A11D9E
:1004E000B11D20931E0180931F0190932001A093C2
:1004F0002101B093220180911A0190911B01A091DA
:100500001C01B0911D010196A11DB11D80931A011E
:1005100090931B01A0931C01B0931D01BF91AF915B
:100520009F918F913F912F910F900FBE0F901F9031
:1005300018951F920F920FB60F9211242F933F938D
:100540004F935F936F937F938F939F93AF93BF93DB
:10055000EF93FF9383E291E00E941C01FF91EF91E2
:10056000BF91AF919F918F917F916F915F914F91CB
:100570003F912F910F900FBE0F901F9018951F92D3
:100580000F920FB60F9211242F938F939F93EF9397
:10059000FF93E0913301F09134018081E0913901C2
:1005A000F0913A0182FD12C0908180913C018F5FF1
:1005B0008F7320913D01821751F0E0913C01F0E0F2
:1005C000ED5DFE4F958F80933C0101C08081FF91CE
:1005D000EF919F918F912F910F900FBE0F901F90D1
:1005E0001895789484B5826084BD84B5816084BD9B
:1005F00085B5826085BD85B5816085BD80916E00C1
:10060000816080936E0010928100809181008260F1
:10061000809381008091810081608093810080912E
:1006200080008160809380008091B100846080931D
:10063000B1008091B00081608093B00080917A0019
:10064000846080937A0080917A00826080937A003F
:1006500080917A00816080937A0080917A0080682E
:1006600080937A001092C100E0913301F09134013F
:1006700082E08083E0912F01F09130011082E091BF
:100680003101F09132018FEC808310923B01E091B7
:100690003701F091380186E08083E0913501F091D7
:1006A0003601808180618083E0913501F0913601CF
:1006B000808188608083E0913501F09136018081EE
:1006C00080688083E0913501F091360180818F7DD3
:1006D00080838DE00E9487008CE00E9487008BE081
:1006E0000E94870060E08DE00E94B00160E08CE035
:1006F0000E94B00160E08BE00E94B001C0E4DEE641
:1007000083E291E00E940601892B79F183E291E076
:100710000E94E40080930001893739F5C0937C0082
:1007200080917A00806480937A0080917A0086FDBF
:10073000FCCF809178008091790010921601109280
:10074000170110921801109219014AE060E070E060
:10075000CB010E94FC0142E050E063E171E083E2E2
:1007600091E00E94A600D0930001809100018033A7
:1007700031F461E08DE00E94B00160E007C0813398
:1007800051F460E08DE00E94B00161E08CE00E94D5
:10079000B00160E00BC0823361F460E08DE00E9444
:1007A000B00160E08CE00E94B00161E08BE00E944B
:1007B000B0010E94A601A4CFE3E2F1E0138212820D
:1007C00088EE93E0A0E0B0E084839583A683B783AE
:1007D00085E091E09183808385EC90E09587848724
:1007E00084EC90E09787868780EC90E0918B808BFB
:1007F00081EC90E0938B828B82EC90E0958B848BE4
:1008000086EC90E0978B868B118E128E138E148E51
:100810000895A1E21A2EAA1BBB1BFD010DC0AA1F41
:10082000BB1FEE1FFF1FA217B307E407F50720F059
:10083000A21BB30BE40BF50B661F771F881F991FD4
:100840001A9469F760957095809590959B01AC011D
:10085000BD01CF010895EE0FFF1F0590F491E02D2B
:10086000099481E090E0F8940C943604F894FFCF5A
:100870006E000000003D01A600D50084010601E4E1
:0608800000F8000D0A0063
:00000001FF
